:100000000C9434000C9451000C9451000C94510049
:100010000C9451000C9451000C9451000C9451001C
:100020000C9451000C9451000C9451000C9451000C
:100030000C9451000C9451000C9451000C945100FC
:100040000C9451000C9451000C9451000C945100EC
:100050000C9451000C9451000C9451000C945100DC
:100060000C9451000C94510011241FBECFEFD8E026
:10007000DEBFCDBF11E0A0E0B1E0E8E5F8E002C0EE
:1000800005900D92AC31B107D9F721E0ACE1B1E0B8
:1000900001C01D92AE32B207E1F70E9446010C94F6
:1000A0002A040C940000429A00000000429808952F
:1000B0001AB8419A40985F9B04C00E9453005F9910
:1000C000FCCF8FEF8AB90895CF93C82F0E945800B4
:1000D000CBB988B18C7F88B90E9453001BB8CF91EF
:1000E0000895CF93DF93EC01709321016093200179
:1000F00097B19F6097B98FE295E70197F1F700C03C
:10010000000081E00E9464008FE99FE00197F1F711
:1001100000C0000088E30E9464009FE728E381E0BC
:10012000915020408040E1F700C000008CE00E9428
:1001300064009FE728E381E0915020408040E1F790
:1001400000C00000D0932301C093220182E090E020
:1001500090931F0180931E0182E190E090931D0116
:1001600080931C01DF91CF910895CF93C82F0E94F7
:100170005800CBB94198409A0E9453001BB8CF91C8
:1001800008950F931F93CF93DF93EC010E945800C3
:100190008881882371F001E011E01F930F930E9482
:1001A0004F0189910E94B5000F900F9088818111B5
:1001B000F4CFDF91CF911F910F9108950F931F936B
:1001C000CF93DF932FEF80E792E021508040904063
:1001D000E1F700C00000339A809120019091210145
:1001E000019709F048C080911C0190911D011816DB
:1001F00019060CF046C0C0E0D0E000E010E08C2F03
:100200008F570E94640080912201909123010E94E7
:10021000C10080911C0190911D018C179D078CF4E9
:100220008FE99FE00197F1F700C0000081E00E9494
:1002300064008FE99FE00197F1F700C00000C02F34
:10024000D12F8C2F80580E94640080E091E00E94A2
:10025000C1008FE798E321E0815090402040E1F712
:1002600000C00000219680911C0190911D01C817CB
:10027000D9072CF206C080912201909123010E949F
:10028000C100DF91CF911F910F91089561E070E05F
:1002900082E091E00E9471000E94DE00FDCFA0E0AC
:1002A000B0E0E5E5F1E00C940104AE01495F5F4F79
:1002B000DA016D917D91AD0108E211E0F8018281D2
:1002C0009381DC0113962C911397286013962C933D
:1002D0000E947501D8011296ED91FC91139723812C
:1002E000277F2383E4E00C941D04ACE0B0E0EBE74F
:1002F000F1E00C94F3037C016B018A01FC0117828D
:100300001682838181FFBDC1CE0101964C01F701A8
:100310009381F60193FD859193FF81916F0188236D
:1003200009F4ABC1853239F493FD859193FF819136
:100330006F01853229F4B70190E00E945D03E7CF99
:10034000512C312C20E02032A0F48B3269F030F4B3
:10035000803259F0833269F420612CC08D3239F03B
:10036000803339F4216026C02260246023C02860D5
:1003700021C027FD27C030ED380F3A3078F426FF32
:1003800006C0FAE05F9E300D1124532E13C08AE0A0
:10039000389E300D1124332E20620CC08E3221F491
:1003A00026FD6BC1206406C08C3611F4206802C0A3
:1003B000883641F4F60193FD859193FF81916F0199
:1003C0008111C1CF982F9F7D9554933028F40C5FF5
:1003D0001F4FFFE3F9830DC0833631F0833771F08F
:1003E000833509F05BC022C0F801808189830E5FEC
:1003F0001F4F44244394512C540115C03801F2E09E
:100400006F0E711CF801A080B18026FF03C0652D1E
:1004100070E002C06FEF7FEFC5012C870E9452038E
:100420002C0183012C852F77222E17C03801F2E092
:100430006F0E711CF801A080B18026FF03C0652DEE
:1004400070E002C06FEF7FEFC5012C870E94470369
:100450002C012C852068222E830123FC1BC0832DB8
:1004600090E048165906B0F4B70180E290E00E948F
:100470005D033A94F4CFF50127FC859127FE819125
:100480005F01B70190E00E945D0331103A94F1E002
:100490004F1A51084114510471F7E5C0843611F028
:1004A000893639F5F80127FF07C0608171818281A3
:1004B00093810C5F1F4F08C060817181072E000C73
:1004C000880B990B0E5F1F4F2F76722E97FF09C076
:1004D00090958095709561957F4F8F4F9F4F2068C5
:1004E000722E2AE030E0A4010E949503A82EA818DD
:1004F00044C0853729F42F7EB22E2AE030E025C093
:10050000F22FF97FBF2E8F36C1F018F4883579F0BD
:10051000B4C0803719F0883721F0AFC02F2F206189
:10052000B22EB4FE0DC08B2D8460B82E09C024FFFE
:100530000AC09F2F9660B92E06C028E030E005C0A3
:1005400020E130E002C020E132E0F801B7FE07C050
:1005500060817181828193810C5F1F4F06C0608131
:10056000718180E090E00E5F1F4FA4010E9495030F
:10057000A82EA818FB2DFF777F2E76FE0BC0372DF7
:100580003E7FA51450F474FE0AC072FC08C0372DDB
:100590003E7E05C0BA2C372D03C0BA2C01C0B52C45
:1005A00034FF0DC0FE01EA0DF11D8081803311F48E
:1005B000397E09C032FF06C0B394B39404C0832FC0
:1005C000867809F0B39433FD13C030FF06C05A2C6F
:1005D000B31418F4530C5B18B32CB31468F4B701BC
:1005E00080E290E03C870E945D03B3943C85F5CFA8
:1005F000B31410F43B1801C0312C34FF12C0B70102
:1006000080E390E03C870E945D033C8532FF17C089
:1006100031FD03C088E790E002C088E590E0B701B3
:100620000CC0832F867859F031FF02C08BE201C0E5
:1006300080E237FD8DE2B70190E00E945D03A514D2
:1006400038F4B70180E390E00E945D035A94F7CF3D
:10065000AA94F401EA0DF11D8081B70190E00E9497
:100660005D03A110F5CF332009F451CEB70180E22C
:1006700090E00E945D033A94F6CFF701868197815E
:1006800002C08FEF9FEF2C96E2E10C940F04FC0167
:100690000590615070400110D8F7809590958E0FAD
:1006A0009F1F0895FC016150704001900110D8F720
:1006B000809590958E0F9F1F08950F931F93CF9352
:1006C000DF93FB01238121FD03C08FEF9FEF28C043
:1006D00022FF16C046815781248135814217530776
:1006E00044F4A081B1819D012F5F3F4F318320836E
:1006F0008C93268137812F5F3F4F3783268310C02D
:10070000EB01092F182F0084F185E02D0995892B25
:10071000E1F68E819F8101969F838E83812F902F9A
:10072000DF91CF911F910F910895FA01AA272830E8
:1007300051F1203181F1E8946F936E7F6E5F7F4FAE
:100740008F4F9F4FAF4FB1E03ED0B4E03CD0670F2A
:10075000781F891F9A1FA11D680F791F8A1F911D7D
:10076000A11D6A0F711D811D911DA11D20D009F4CD
:1007700068943F912AE0269F11243019305D31930F
:10078000DEF6CF010895462F4770405D4193B3E0F8
:100790000FD0C9F7F6CF462F4F70405D4A3318F09F
:1007A000495D31FD4052419302D0A9F7EACFB4E050
:1007B000A6959795879577956795BA95C9F7009708
:1007C0006105710508959B01AC010A2E06945795A9
:1007D000479537952795BA95C9F7620F731F841F00
:1007E000951FA01D08952F923F924F925F926F9296
:1007F0007F928F929F92AF92BF92CF92DF92EF92B1
:10080000FF920F931F93CF93DF93CDB7DEB7CA1B31
:10081000DB0B0FB6F894DEBF0FBECDBF09942A885C
:10082000398848885F846E847D848C849B84AA8404
:10083000B984C884DF80EE80FD800C811B81AA8191
:10084000B981CE0FD11D0FB6F894DEBF0FBECDBF5C
:08085000ED010895F894FFCFBB
:100858002000706965722073686177207761732062
:0C0868006865726520746F20646179007F
:00000001FF
