S01200004C434450726F6A6563742E7372656368
S11300000C9434000C9451000C9451000C94510045
S11300100C9451000C9451000C9451000C94510018
S11300200C9451000C9451000C9451000C94510008
S11300300C9451000C9451000C9451000C945100F8
S11300400C9451000C9451000C9451000C945100E8
S11300500C9451000C9451000C9451000C945100D8
S11300600C9451000C94510011241FBECFEFD8E022
S1130070DEBFCDBF11E0A0E0B1E0E8EAF7E002C0E6
S113008005900D92A431B107D9F721E0A4E1B1E0C4
S113009001C01D92AA31B207E1F70E94D4000C946A
S11300A0D2030C9400002FEF80E792E021508040AF
S11300B09040E1F700C00000339A0895429A00008E
S11300C00000429808951AB8419A40985F9B04C072
S11300D00E945E005F99FCCF8FEF8AB90895CF9399
S11300E0C82F0E946300CBB988B18C7F88B90E9465
S11300F05E001BB8CF910895CF93C82F0E94630070
S1130100CBB94198409A0E945E001BB8CF910895E4
S11301100F931F93CF93DF93EC010E9463008881B8
S1130120882371F002E111E01F930F930E94F700FE
S113013089910E947C000F900F9088818111F4CFE7
S1130140DF91CF911F910F91089587B18F6087B987
S11301508FE295E70197F1F700C0000081E00E946B
S11301606F008FE99FE00197F1F700C0000088E37A
S11301700E946F009FE728E381E091502040804077
S1130180E1F700C000008FE00E946F009FE728E3C2
S113019081E0915020408040E1F700C0000080E001
S11301A091E00E94880008958AE091E09F938F93E4
S11301B00E94E1000E94A5000F900F900E9453003E
S11301C0FDCFA0E0B0E0E7EEF0E00C94AB03AE01AD
S11301D04B5F5F4FFA0161917191AF0180911601FC
S11301E0909117010E941D01E2E00C94C703A0E066
S11301F0B0E0EDEFF0E00C94A903AE01495F5F4F6E
S1130200DA016D917D91AD0104E111E0F801828183
S11302109381DC0113962C911397286013962C93E9
S11302200E941D01D8011296ED91FC911397238130
S1130230277F2383E4E00C94C503ACE0B0E0E3E261
S1130240F1E00C949B037C016B018A01FC01178291
S11302501682838181FFBDC1CE0101964C01F70155
S11302609381F60193FD859193FF81916F0188231A
S113027009F4ABC1853239F493FD859193FF8191E3
S11302806F01853229F4B70190E00E940503E7CF9E
S1130290512C312C20E02032A0F48B3269F030F460
S11302A0803259F0833269F420612CC08D3239F0E8
S11302B0803339F4216026C02260246023C0286082
S11302C021C027FD27C030ED380F3A3078F426FFDF
S11302D006C0FAE05F9E300D1124532E13C08AE04D
S11302E0389E300D1124332E20620CC08E3221F43E
S11302F026FD6BC1206406C08C3611F4206802C050
S1130300883641F4F60193FD859193FF81916F0145
S11303108111C1CF982F9F7D9554933028F40C5FA1
S11303201F4FFFE3F9830DC0833631F0833771F03B
S1130330833509F05BC022C0F801808189830E5F98
S11303401F4F44244394512C540115C03801F2E04A
S11303506F0E711CF801A080B18026FF03C0652DCB
S113036070E002C06FEF7FEFC5012C870E94FA0294
S11303702C0183012C852F77222E17C03801F2E03F
S11303806F0E711CF801A080B18026FF03C0652D9B
S113039070E002C06FEF7FEFC5012C870E94EF026F
S11303A02C012C852068222E830123FC1BC0832D65
S11303B090E048165906B0F4B70180E290E00E943C
S11303C005033A94F4CFF50127FC859127FE81912A
S11303D05F01B70190E00E94050331103A94F1E007
S11303E04F1A51084114510471F7E5C0843611F0D5
S11303F0893639F5F80127FF07C060817181828150
S113040093810C5F1F4F08C060817181072E000C1F
S1130410880B990B0E5F1F4F2F76722E97FF09C022
S113042090958095709561957F4F8F4F9F4F206871
S1130430722E2AE030E0A4010E943D03A82EA818E1
S113044044C0853729F42F7EB22E2AE030E025C03F
S1130450F22FF97FBF2E8F36C1F018F4883579F06A
S1130460B4C0803719F0883721F0AFC02F2F206136
S1130470B22EB4FE0DC08B2D8460B82E09C024FFAB
S11304800AC09F2F9660B92E06C028E030E005C050
S113049020E130E002C020E132E0F801B7FE07C0FD
S11304A060817181828193810C5F1F4F06C06081DE
S11304B0718180E090E00E5F1F4FA4010E943D0314
S11304C0A82EA818FB2DFF777F2E76FE0BC0372DA4
S11304D03E7FA51450F474FE0AC072FC08C0372D88
S11304E03E7E05C0BA2C372D03C0BA2C01C0B52CF2
S11304F034FF0DC0FE01EA0DF11D8081803311F43B
S1130500397E09C032FF06C0B394B39404C0832F6C
S1130510867809F0B39433FD13C030FF06C05A2C1B
S1130520B31418F4530C5B18B32CB31468F4B70168
S113053080E290E03C870E940503B3943C85F5CFAC
S1130540B31410F43B1801C0312C34FF12C0B701AE
S113055080E390E03C870E9405033C8532FF17C08E
S113056031FD03C088E790E002C088E590E0B70160
S11305700CC0832F867859F031FF02C08BE201C092
S113058080E237FD8DE2B70190E00E940503A514D7
S113059038F4B70180E390E00E9405035A94F7CF42
S11305A0AA94F401EA0DF11D8081B70190E00E9444
S11305B00503A110F5CF332009F451CEB70180E231
S11305C090E00E9405033A94F6CFF7018681978163
S11305D002C08FEF9FEF2C96E2E10C94B703FC016D
S11305E00590615070400110D8F7809590958E0F5A
S11305F09F1F0895FC016150704001900110D8F7CD
S1130600809590958E0F9F1F08950F931F93CF93FE
S1130610DF93FB01238121FD03C08FEF9FEF28C0EF
S113062022FF16C046815781248135814217530722
S113063044F4A081B1819D012F5F3F4F318320831A
S11306408C93268137812F5F3F4F3783268310C0D9
S1130650EB01092F182F0084F185E02D0995892BD2
S1130660E1F68E819F8101969F838E83812F902F47
S1130670DF91CF911F910F910895FA01AA27283095
S113068051F1203181F1E8946F936E7F6E5F7F4F5B
S11306908F4F9F4FAF4FB1E03ED0B4E03CD0670FD7
S11306A0781F891F9A1FA11D680F791F8A1F911D2A
S11306B0A11D6A0F711D811D911DA11D20D009F47A
S11306C068943F912AE0269F11243019305D3193BC
S11306D0DEF6CF010895462F4770405D4193B3E0A5
S11306E00FD0C9F7F6CF462F4F70405D4A3318F04C
S11306F0495D31FD4052419302D0A9F7EACFB4E0FD
S1130700A6959795879577956795BA95C9F70097B4
S11307106105710508959B01AC010A2E0694579555
S1130720479537952795BA95C9F7620F731F841FAC
S1130730951FA01D08952F923F924F925F926F9242
S11307407F928F929F92AF92BF92CF92DF92EF925D
S1130750FF920F931F93CF93DF93CDB7DEB7CA1BDE
S1130760DB0B0FB6F894DEBF0FBECDBF09942A8809
S1130770398848885F846E847D848C849B84AA84B1
S1130780B984C884DF80EE80FD800C811B81AA813E
S1130790B981CE0FD11D0FB6F894DEBF0FBECDBF09
S10B07A0ED010895F894FFCF68
S11307A87069657220736861770052756E6E696E40
S10707B867210000B1
S9030000FC
